:020000040000FA
:0400000085EF00F098
:10000800B045B045B045B045B045B045B0457C4574
:10001800B045B045B045B045B045B045B045B04530
:10002800B045B045B045B045B045B045B045B04520
:10003800B045B045B045B045B045B0457B42BA4340
:10004800B045B045B045B045B045B045F2442F4342
:100058002345B045B045B045B045B045B045B0457D
:10006800B045B045B045B045B045B045B045B045E0
:10007800B045B045B045B0454200B045B045B04583
:10008800B045B045B045B045B045B045B045B045C0
:10009800B045B045B045B0454200B045B045B04563
:1000A800B045B045B045B045B045B045B045B045A0
:1000B800B045B045B045B045B045B045B045B04590
:1000C800B045B045B045B045B045B045B045B04580
:1000D800B045B045B045B045B045B045B045B04570
:1000E8004200B045B045B045B045B045B045B04513
:1000F800B045B045B045B045B045B045B045B04550
:06010800FF0015EF88F076
:10F888000082000500018300020000000000000063
:10F89800000000000000000000000100000100005E
:10F8A8000100000100000100000200000200000247
:10F8B8000000020000020000030000030000030033
:10F8C800000300000300000400000400000400001E
:10F8D8000400000400000500000500000500000504
:10F8E80000000500000600000600000600000600F3
:10F8F80000060000070000070000070000070000DE
:10F9080007000008000008000008000008000008C0
:10F9180000000900000900000900000900000900B2
:10F92800000A00000A00000A00000A00000A00009D
:10F938000B00000B00000B00000B00000B00000C7C
:10F9480000000C00000C00000C00000C00000D0072
:10F95800000D00000D00000D00000D00000E00005D
:10F968000E00000E00000E00000E00000F00000F39
:10F9780000000F00000F00000F0000100000100032
:10F98800001000001000001000001100001100001D
:10F9980011000011000011000012000012000012F6
:10F9A80000001200001200001300001300001300F2
:10F9B80000130000130000140000140000140000DD
:10F9C80014000014000014010014010014010014B4
:10F9D80001001401001402001402001402001402B1
:10F9E800001402001403001403001403001403009D
:10F9F8001403001404001404001404001404001474
:10FA0800040014050014050014050014050014056D
:10FA1800001406001406001406001406001406005C
:10FA28001407001407001407001407001407001433
:10FA38000800140800140800140800140800140929
:10FA480000140900140900140900140900140A001C
:10FA5800140A00140A00140A00140A00140B0014F3
:10FA68000B00140B00140B00140B00140C00140CE6
:10FA780000140C00140C00140C00140D00140D00DC
:10FA8800140D00140D00140D00140E00140E0014B3
:10FA98000E00140E00140E00140F00140F00140FA3
:10FAA80000140F00140F001410001410001410009C
:10FAB8001410001410001411001411001411001473
:10FAC8001100141100141200141200141200141260
:10FAD800001412001413001413001413001413005C
:10FAE8001413001414001414001414001414001433
:10FAF800140014140114140114140114140114141E
:10FB0800011414021414021414021414021414021A
:10FB180014140314140314140314140314140314F2
:10FB280014041414041414041414041414041414DD
:10FB380005141405141405141405141405141406D6
:10FB480014140614140614140614140614140714B2
:10FB5800140714140714140714140714140814149D
:10FB68000814140814140814140814140914140993
:10FB780014140914140914140914140A14140A1472
:10FB8800140A14140A14140A14140B14140B14145D
:10FB98000B14140B14140B14140C14140C14140C50
:10FBA80014140C14140C14140D14140D14140D1432
:10FBB800140D14140D14140E14140E14140E14141D
:10FBC8000E14140E14140F14140F14140F14140F0D
:10FBD80014140F14141014141014141014141014F2
:10FBE80014101414111414111414111414111414DD
:10FBF80011141412141412141412141412141412CA
:10FC080014141314141314141314141314141314B1
:10FC1800141414141414141414141414141413149D
:10FC28001413141413141413141413141412141492
:10FC3800121414121414121414121414111414118A
:10FC4800141411141411141411141410141410147D
:10FC5800141014141014141014140F14140F141472
:10FC68000F14140F14140F14140E14140E14140E6D
:10FC780014140E14140E14140D14140D14140D145D
:10FC8800140D14140D14140C14140C14140C141452
:10FC98000C14140C14140B14140B14140B14140B50
:10FCA80014140B14140A14140A14140A14140A143D
:10FCB800140A141409141409141409141409141432
:10FCC8000914140814140814140814140814140833
:10FCD800141407141407141407141407141407141D
:10FCE8001406141406141406141406141406141412
:10FCF8000514140514140514140514140514140417
:10FD080014140414140414140414140414140314FC
:10FD180014031414031414031414031414021414F1
:10FD280002141402141402141402141401141401F9
:10FD380014140114140114140114140014140014DC
:10FD480014001414001414001414001314001314D1
:10FD580000131400131400131400121400121400DA
:10FD680012140012140012140011140011140011BE
:10FD780014001114001114001014001014001014B1
:10FD8800001014001014000F14000F14000F1400BA
:10FD98000F14000F14000E14000E14000E14000EA1
:10FDA80014000E14000D14000D14000D14000D1491
:10FDB800000D14000C14000C14000C14000C14009A
:10FDC8000C14000B14000B14000B14000B14000B84
:10FDD80014000A14000A14000A14000A14000A1471
:10FDE800000914000914000914000914000914007A
:10FDF8000814000814000814000814000814000768
:10FE08001400071400071400071400071400061450
:10FE18000006140006140006140006140005140059
:10FE2800051400051400051400051400041400044A
:10FE38001400041400041400041400031400031430
:10FE48000003140003140003140002140002140039
:10FE5800021400021400021400011400011400012D
:10FE68001400011400011400001400001400001410
:10FE78000000140000140000130000130000130019
:10FE8800001300001300001200001200001200000E
:10FE980012000012000011000011000011000011F2
:10FEA80000001100001000001000001000001000F9
:10FEB800001000000F00000F00000F00000F0000EE
:10FEC8000F00000E00000E00000E00000E00000ED5
:10FED80000000D00000D00000D00000D00000D00D9
:10FEE800000C00000C00000C00000C00000C0000CE
:10FEF8000B00000B00000B00000B00000B00000AB9
:10FF080000000A00000A00000A00000A00000900B8
:10FF180000090000090000090000090000080000AD
:10FF2800080000080000080000080000070000079B
:10FF38000000070000070000070000060000060098
:10FF4800000600000600000600000500000500008D
:10FF5800050000050000050000040000040000047E
:10FF68000000040000040000030000030000030078
:10FF7800000300000300000200000200000200006D
:10FF88000200000200000100000100000100000161
:10FF9800000001546F74616C2073657175656E6340
:10FFA8006573203D2025640D0A0A000D0A52657309
:10FFB80065742054696D65203D2025642075732083
:10FFC8000025643A0925640925640925640D0A0099
:10FFD80053657175656E6365202325640D0A006F8E
:10FFE8007220677265617465720D0A0A0009470913
:07FFF8005209420D0A00004E
:020000040001F9
:100000002AC542F52BC543F52CC544F52DC545F54C
:100010002EC546F52FC547F530C548F531C549F51C
:1000200049BE15EF80F018EF80F0010E19EF80F057
:10003000000E406E416A40504110D8B422EF80F06B
:1000400024EF80F034EF80F0491E481E471E461E04
:10005000451E441E431E426C000E4322442245228C
:1000600046224722482249224FBE39EF80F03BEF1B
:1000700080F03CEF80F050924FBE49EF80F04F503F
:1000800006E14E04D8B047EF80F049EF80F04FEF23
:1000900080F0000E3D6E010E3C6E53EF80F04EC5B9
:1000A0003CF54FC53DF54CC53EF54DC53FF54050BF
:1000B0004110D8A45EEF80F060EF80F067EF80F031
:1000C00050A465EF80F067EF80F06AEF80F03E06A5
:1000D000D8A03F06000E4B6E1F0E4A6E000E0501A3
:1000E000BA6FEFEF80F04A06D8A04B069B0E4A2469
:1000F000D96E050E4B20DA6E42C50BF543C50CF5E3
:1001000044C50DF545C50EF546C50FF547C510F5B7
:1001100048C511F549C512F50A0E136E000E146E8E
:10012000000E156E000E166E000E176E000E186E85
:10013000000E196E000E1A6E44EC84F00BC532F5F9
:100140000CC533F50DC534F50EC535F50FC536F5BF
:1001500010C537F511C538F512C539F532C51DF58D
:1001600034C51EF521EC89F01D50300FDF6E3C06C2
:10017000D8A03D063E06D8A03F0642C50BF543C5B4
:100180000CF544C50DF545C50EF546C50FF547C53B
:1001900010F548C511F549C512F50A0E136E000E8B
:1001A000146E000E156E000E166E000E176E000E09
:1001B000186E000E196E000E1A6E80EC83F00BC5DF
:1001C00042F50CC543F50DC544F50EC545F50FC503
:1001D00046F510C547F511C548F512C549F54BBEA2
:1001E000FAEF80F04B5008E14A04D8A0FAEF80F013
:1001F000FCEF80F02CEF81F042504310441045108A
:100200004610471048104910D8A409EF81F00BEFB1
:1002100081F073EF80F03DBE18EF81F03D5006E1B4
:100220003C04D8B016EF81F018EF81F073EF80F046
:100230003FBE23EF81F03F5008E13E04D8A023EFFA
:1002400081F025EF81F02CEF81F050B22AEF81F0A0
:100250002CEF81F073EF80F040504110D8A433EFC1
:1002600081F035EF81F03CEF81F050A43AEF81F05E
:100270003CEF81F05BEF81F04A06D8A04B0640507E
:100280004110D8A446EF81F048EF81F04EEF81F0A5
:10029000000E3B6E2B0E3A6E52EF81F0000E3B6E5D
:1002A0002D0E3A6E9B0E4A24D96E050E4B20DA6E47
:1002B0006100E8F4DFF428C51DF529C51EF59B0E85
:1002C0004A241F6E050E4B20206E3EC521F53FC50A
:1002D00022F5FCEC85F01DC528F51EC529F5120098
:1002E000000E05018F6F000E8E6F9B0E786FFF0E54
:1002F000796F010E54247A6F000E55207B6F9CECB1
:100300008AF0000E0501916F000E906F72EF82F07F
:10031000D80E786FFF0E796F010E90257A6F000E60
:1003200091217B6F9CEC8AF0F50E0501786FFF0E32
:10033000796F9CEC8AF0000E05018D6F000E8C6FBA
:10034000F5EF81F0C90E786FFF0E796F010E8C25E5
:100350007A6F000E8D217B6F8EC50BF58FC50CF566
:10036000000E0E6E030E0D6E72EC8AF02F0E0B2433
:10037000D96E1B0E0C20DA6EDF500501866F865198
:100380007C6F7D6B8EC50BF58FC50CF5000E0E6E68
:10039000030E0D6E72EC8AF0300E0B24D96E1B0E1C
:1003A0000C20DA6EDF500501876F87517E6F7F6BFF
:1003B0008EC50BF58FC50CF5000E0E6E030E0D6E7F
:1003C00072EC8AF0310E0B24D96E1B0E0C20DA6E03
:1003D000DF500501886F8851806F816B9CEC8AF03B
:1003E00005018C4B8D2B8E4B8F2BDB0E866F050EF4
:1003F000876FD8909035D96E9135DA6ED890D9360E
:10040000DA368651D9268751DA22DE508C5DDE50ED
:100410008D59D8B00EEF82F010EF82F01BEF82F012
:10042000560E8E5D050E8F59D8A019EF82F01BEF86
:1004300082F0A2EF81F0B30E786FFF0E796FDB0EC2
:10044000866F050E876F020E8627000E8723D890D1
:100450009035D96E9135DA6ED890D936DA36865124
:10046000D9268751DA22610078F388F5610074F3A8
:1004700089F5D89089318A6F88317A6F8AC57BF582
:100480009CEC8AF0DB0E0501866F050E876F020E6D
:100490008627000E8723D8909035D96E9135DA6E75
:1004A000D890D936DA368651D9268751DA22DE2815
:1004B00006E1DE28D8A45FEF82F061EF82F069EFF9
:1004C00082F0E70E786FFF0E796F9CEC8AF06FEF89
:1004D00082F0AF0E786FFF0E796F9CEC8AF0050109
:1004E000904B912B9051545C91515558D8B07BEF63
:1004F00082F07DEF82F088EF81F01200610088F5D4
:10050000D9F461008CF5DAF4DEC4F6F4DDC4F7F456
:10051000000EF86E0800F550250AD8A492EF82F07C
:1005200094EF82F05EEF83F0610088F5D9F461000A
:100530008CF5DAF4DE2A000EDD22000E4D6E000E80
:100540004C6E4CC550F54DC551F54E684F68610075
:1005500088F5D9F461008CF5DAF4DEC4F6F4DDC474
:10056000F7F4000EF86E0800F550640AD8B4BBEF3B
:1005700082F0BDEF82F0D3EF82F0610088F5D9F40C
:1005800061008CF5DAF4DEC4F6F4DDC4F7F4000E95
:10059000F86E0800F550690AD8A4D1EF82F0D3EFC5
:1005A00082F01EEF83F0610088F5D9F461008CF5CC
:1005B000DAF4DE2A000EDD22610090F5D9F4610044
:1005C00094F5DAF461007CF366F5020EDE26610034
:1005D0007CF367F5000EDD22610098F5D9F4610027
:1005E0009CF5DAF4610078F368F5610074F369F55D
:1005F0000501000E69BFFF0E6A6F6B6F6C6F6D6F48
:100600006E6F6F6F60C528F561C529F568C52AF55D
:1006100069C52BF56AC52CF56BC52DF56CC52EF596
:100620006DC52FF56EC530F56FC531F500EC80F066
:1006300028C560F529C561F57FEF83F0610088F575
:10064000D9F461008CF5DAF4DEC4F6F4DDC4F7F415
:10065000000EF86E0800F550250AD8A432EF83F09A
:1006600034EF83F04EEF83F0610088F5D9F4610038
:100670008CF5DAF4DE2A000EDD22000E0E6E250E59
:100680000D6E60C50FF561C510F5B0EC86F0000E7B
:100690000501616F010E606F7FEF83F0610088F5E7
:1006A000D9F461008CF5DAF4DE2A000EDD22000EAA
:1006B0000501616F000E606F7FEF83F0610088F5C8
:1006C000D9F461008CF5DAF4DEC4F6F4DDC4F7F495
:1006D000000EF86E0800F5500D6E0E6A60C50FF53D
:1006E00061C510F5B0EC86F0610088F5D9F46100C1
:1006F0008CF5DAF4DE2A000EDD2247EF83F01200DB
:10070000000E1C6E1ABE89EF83F087EF83F09BEF1B
:1007100083F01A1E191E181E171E161E151E141EF3
:10072000136C000E142215221622172218221922E9
:100730001A22010E1C6E12BEA2EF83F0A0EF83F00E
:10074000B4EF83F0121E111E101E0F1E0E1E0D1E82
:100750000C1E0B6C000E0C220D220E220F221022FA
:1007600011221222010E1C1A21EE1DF1070EDE6A63
:10077000E806FDE21350141015101610171018108B
:1007800019101A10D8B4C7EF83F0C9EF83F01BEF2C
:1007900084F0010E1B6ED7EF83F0D8901336143619
:1007A000153616361736183619361A361B2A1AAE6B
:1007B000DCEF83F0DEEF83F0CDEF83F0D8901D36D1
:1007C0001E361F3620362136223623362436135065
:1007D0000B5C14500C5815500D5816500E581750ED
:1007E0000F5818501058195011581A501258D8A0B4
:1007F000FCEF83F0FEEF83F00FEF84F013500B5EFD
:1008000014500C5A15500D5A16500E5A17500F5AB4
:100810001850105A1950115A1A50125A1D80D89057
:100820001A32193218321732163215321432133284
:100830001B2EDEEF83F01C50D8B421EF84F023EFA1
:1008400084F033EF84F0241E231E221E211E201E5E
:100850001F1E1E1E1D6C000E1E221F222022212282
:100860002222232224221DC50BF51EC50CF51FC50F
:100870000DF520C50EF521C50FF522C510F523C5D0
:1008800011F524C512F51200000E1C6E12BE4DEFBC
:1008900084F04BEF84F05FEF84F0121E111E101EE7
:1008A0000F1E0E1E0D1E0C1E0B6C000E0C220D22B8
:1008B0000E220F22102211221222010E1C6E1ABECD
:1008C00066EF84F064EF84F076EF84F01A1E191E50
:1008D000181E171E161E151E141E136C000E142251
:1008E000152216221722182219221A221350141028
:1008F000151016101710181019101A10D8B483EF0D
:1009000084F085EF84F0CDEF84F0010E1B6E93EF41
:1009100084F0D89013361436153616361736183636
:1009200019361A361B2A1AAE98EF84F09AEF84F023
:1009300089EF84F013500B5C14500C5815500D586F
:1009400016500E5817500F5818501058195011586B
:100950001A501258D8A0AFEF84F0B1EF84F0C1EF75
:1009600084F013500B5E14500C5A15500D5A16504B
:100970000E5A17500F5A1850105A1950115A1A502F
:10098000125AD8901A3219321832173216321532DA
:10099000143213321B2E9AEF84F01C50D8B4D3EFCC
:1009A00084F0D5EF84F0E5EF84F0121E111E101EC6
:1009B0000F1E0E1E0D1E0C1E0B6C000E0C220D22A7
:1009C0000E220F221022112212220BC50BF50CC58C
:1009D0000CF50DC50DF50EC50EF50FC50FF510C5BF
:1009E00010F511C511F512C512F51200B19C0301E5
:1009F000429F000E1D6F000E1C6FBF82BF92B1A8F8
:100A000004EF85F006EF85F00BEF85F0B1980368F1
:100A1000046811EF85F0600000FD03F5600004FD3F
:100A200004F5045009E1640E035CD8A01AEF85F0C8
:100A30001CEF85F06FEF85F0550E545C050E555890
:100A4000D8B025EF85F027EF85F041EF85F0DB0E7C
:100A5000016E050E026E020E0126000E0222D890D3
:100A60005434D96E5534DA6ED890D936DA3601500E
:100A7000D9260250DA2261000CF4DEF4610010F491
:100A8000DDF4544A552ADB0E016E050E026ED89035
:100A90005434D96E5534DA6ED890D936DA360150DE
:100AA000D9260250DA22000EDE6E000EDD6EDB0E5D
:100AB000016E050E026E020E0126000E0222D89073
:100AC0005434D96E5534DA6ED890D936DA360150AE
:100AD000D9260250DA22000EDE6E000EDD6E550EB3
:100AE000545C050E5558D8B078EF85F07AEF85F054
:100AF0008DEF85F0DB0E016E050E026ED89054343A
:100B0000D96E5534DA6ED890D936DA360150D926F6
:100B10000250DA22DE2A000EDD221100000EC26E23
:100B2000000EC16E000EBE6E000EBF6E000EC06ED7
:100B3000070ECA6EEF0EC66EF40EC76E260EC86E96
:100B4000FC0EC96ED80E0401186F080E106FC40E8B
:100B5000086F070E206FEA0E006F000E196F000E6F
:100B6000216F000E096F080E016F000E116F000E4D
:100B7000226F000E026F000E0A6F000E126F000E41
:100B80001A6F03690B69FE0E136F1B69070E236F43
:100B900004690C6914691C690F0E246F179B168B6E
:100BA000159B000E0B6E000E0C6E000E0D6E42ECCF
:100BB0008BF09E8E0C0E02014C6F3A0E116F0D0ED3
:100BC0006E6F2C0E146F310E156F0C0E4F6F0B0ED7
:100BD0006D6F140E6A6F000E616F3B0E096F030E8E
:100BE000196F030E1A6F0C0E636F320E176F020E21
:100BF000186F110E6B6F120050A001EF86F003EF1B
:100C000086F00DEF86F01FC516F520C517F51DC53A
:100C100018F51EC519F5DDEC88F022BE12EF86F03E
:100C200014EF86F01AEF86F021C526F522C527F5C8
:100C30001EEF86F0000E276E000E266E000E256E4B
:100C4000000E246E30EF86F0000E0E6E200E0D6E3C
:100C50001DC50FF51EC510F5B0EC86F0244A252AF7
:100C60002650245C2550800A236E2750800A235882
:100C7000D8A03DEF86F03FEF86F024EF86F050B02D
:100C800044EF86F046EF86F050EF86F01FC516F56C
:100C900020C517F51DC518F51EC519F5DDEC88F042
:100CA0001FC50BF520C50CF541EC89F026500B242F
:0A0CB0001D6E27500C201E6E12006E
:100CBC00B29E68A064EF86F066EF86F088EF86F04F
:100CCC0067A06BEF86F06DEF86F088EF86F067908B
:100CDC000501D051D111D211D8B477EF86F079EF4C
:100CEC0086F0AFEF86F002D886EF86F00500FA6E3C
:100CFC00D051FD6ED151FE6ED251FF6EFA501200E2
:100D0C00AFEF86F068A28DEF86F08FEF86F0AFEF35
:100D1C0086F067A294EF86F096EF86F0AFEF86F040
:100D2C0067920501CD51CE11CF11D8B4A0EF86F04A
:100D3C00A2EF86F0AFEF86F002D8AFEF86F0050099
:100D4C00FA6ECD51FD6ECE51FE6ECF51FF6EFA5044
:100D5C00120011000F501010D8B4B7EF86F0B9EF95
:100D6C0086F0C2EF86F00F501010D8A4C0EF86F0BA
:100D7C00C2EF86F0C7EF86F00D5056EC8BF0FAEF11
:100D8C0086F020EE04F00F50D9261050DA22DE50F7
:100D9C00DE10D8B4D4EF86F0D6EF86F0F1EF86F003
:100DAC0020EE04F00F50D9261050DA2210EE02F08B
:100DBC000F50E1261050E222DE50E65CE650800A2D
:100DCC00156EDE50800A1558D8B0EFEF86F0F1EFB3
:100DDC0086F0FAEF86F020EE02F00F50D926105074
:100DEC00DA22DE2A000EDD221200000E606E020EE8
:100DFC00616E000E626E270E636E000E646E000E46
:100E0C00656E000E666E000E676E000E686E000E4C
:100E1C006A6E180E6B6E000E6C6E140E6D6E000EFC
:100E2C006E6EB29CB29E67906792A29EA29CBA0E06
:100E3C000B6E160E0C6E010E0D6E34EC8BF0B80EA4
:100E4C000B6E160E0C6E010E0D6E2DEC8BF0BC0E97
:100E5C000B6E160E0C6E010E0D6E3BEC8BF0800EB5
:100E6C00696E120043EC88F0D68EC4EC8AF0050152
:100E7C009A51D8B444EF87F046EF87F064EF87F0CF
:100E8C009951D8A44CEF87F04EEF87F061EF87F0C3
:100E9C005DEC8AF0A30E0501936F570E926F020E54
:100EAC00E82EFED7922FFCD7932FFAD700F0C4EC84
:100EBC008AF070EC81F0000E05019A6F290E050185
:100ECC00936F960E926F7F0EE82EFED7922FFCD763
:100EDC00932FFAD73DEF87F085EF00F0B19E930E7C
:100EEC00086EF80E096E000E0A6E020E0001E86F15
:100EFC00FC8D6000DCF305F56000E0F306F5076A95
:100F0C000550F9270650FA230750FB23080E082436
:100F1C00056E070E0920066E000E0A20076E05509E
:100F2C00F95D0650FA590750FB59D8A0A0EF87F08D
:100F3C00A2EF87F0ABEF87F0610020F4F9F06100CD
:100F4C0024F4FAF0610028F4FBF0110072C576F578
:100F5C0073C577F5000E0501986F000E976FCAEFF9
:100F6C0087F070C560F571C561F5760E626F050E80
:100F7C00636F74C564F575C565F57EEC82F005018B
:100F8C0060519727615198236100D8F5F6F4610000
:100F9C00DCF5F7F4000EF86E0800F5500009D8A443
:100FAC00DAEF87F0DCEF87F0B7EF87F097C570F5D5
:100FBC0098C571F51200000E0201F16F000EF36F6F
:100FCC00000EF56FA00EF76F800EF86F000EF96F24
:100FDC008A0EFA6F000EFB6F000EFC6F000EFD6F99
:100FEC00000EFE6F000EFF6F000E0B6E000E0C6EEF
:100FFC00000E0D6E0AEC8BF0000E0B6E000E0C6EDC
:10100C00000E0D6E03EC8BF0000E0B6E000E0C6ED2
:10101C00000E0D6E11EC8BF0000E536E1200B60E1E
:10102C00F66E160EF76E010EF86E09006100D4F321
:10103C0054F509006100D4F355F501EEDBF119EE1E
:10104C0053F3EE6AE550E150FCE1E250FAE101EEB7
:10105C0094F1270EEE6AE806FDE101EE4CF1080E64
:10106C00EE6AE806FDE10401080E5D6F000E5E6F8E
:10107C00000E5F6F000138EF87F0FFEC88F0B0ECEA
:10108C008AF017EC8AF07BEC89F08EEC85F0ECECB6
:10109C008AF0B8EC88F0FEEC89F092EC88F0AFECBA
:1010AC0089F087EC8AF0C9EC89F06CEC88F095EC4F
:1010BC0089F05EEC89F0E1EC87F0D3EC8AF02FEC50
:1010CC008AF0FBEC86F01FEC8BF01200020E000194
:1010DC00E86F930EF96FF80EFA6F000EFB6F000EAF
:1010EC00F16F810EF06F0B0EFD6F000EF86F0F0E8F
:1010FC00F76F000EEF6F010EEE6F190EFF6F000E03
:10110C00FE6FB89AB898B89EB89CA89AA898A89E52
:10111C00A89CC00EFC6F1200000E0001E86F400E80
:10112C00F96F030EFA6F000EFB6F2B0EF16F2E0E84
:10113C00F06F420EFD6F000EF86F020EF76F000E8F
:10114C00EF6FF00EEE6F1E0EFF6F000EFE6FB09A7B
:10115C00B098B09EB09CA09AA098A09EA09CC00EE7
:10116C00FC6F1200010E0001E86F8D0EF96F000E7E
:10117C00FA6F000EFB6F1B0EF16F2F0EF06F600EEF
:10118C00FD6F000EF86F010EF76F0F0EEF6FEE692B
:10119C00280EFF6F000EFE6FB49AB498B49EB49CE8
:1011AC00A49AA498A49EA49CC00EFC6F1200000EDE
:1011BC001C6E000E1B6EEEEF88F01AC50DF50E6A54
:1011CC0018C50FF519C510F5B0EC86F01B4A1C2A92
:1011DC001B501624D96E1C501720DA6EDF501A6E75
:1011EC001A50D8A4FCEF88F0FEEF88F0E3EF88F0FB
:1011FC001200D68A000ED6BE010E0B6ED69E550E70
:10120C000401596FAA0E596F5991000E5F6F000EB1
:10121C005E6F080E5D6F550E596FAA0E596F59818E
:10122C000BB002D0D69E01D0D68E03016781658D9E
:10123C00628F658F12001EBE2EEF89F01E5006E1E4
:10124C001D04D8B02CEF89F02EEF89F03CEF89F01B
:10125C001DC51FF51EC520F51F1E201E1F4A202A66
:10126C001FC51DF520C51EF540EF89F01DC51DF5E8
:10127C001EC51EF512000BC50DF50CC50EF549EF7C
:10128C0089F00B4A0C2A61002CF4D9F4610030F47B
:10129C00DAF4DF50D8A455EF89F057EF89F047EF17
:1012AC0089F00D500B5C0B6E0E500C580C6E12002E
:1012BC00000E03011F6F000E206F010E216F000E38
:1012CC001D6F000E1C6FB1981C51600074FC0BF567
:1012DC000C6A0BC50CF50B6A0B100501D96F0C5081
:1012EC00DA6F330E03011E6F12000301879F000E8D
:1012FC00886F6B0E896F020E8F6F010E906F000E50
:10130C008A6F000E8E6F1E0E8D6F000E8C6F000E8E
:10131C008B6F000EBB6F9E98800E876F1200020EB3
:10132C000001D56F010ED76F220ED86F410ED96F09
:10133C00400EDA6F000EDB6F050EDC6F100EDD6FEA
:10134C00080EDE6F200EDF6F000ED46F800ED66F8E
:10135C001200010E0001D56F000ED76F190ED86F59
:10136C00020ED96F000EDA6F000EDB6F020EDC6F0F
:10137C00080EDD6F000EDE6F000EDF6F000ED46FF7
:10138C00840ED66F1200000E0001D56F020ED76FBF
:10139C00220ED86F000ED96F000EDA6F000EDB6FC5
:1013AC00020EDC6F000EDD6F000EDE6F000EDF6FC5
:0A13BC00000ED46F800ED66F1200F1
:1013C800B29C0501CA51CB11CC11D8B4EEEF89F00B
:1013D800F0EF89F0FDEF89F002D8FDEF89F0050004
:1013E800FA6ECA51FD6ECB51FE6ECC51FF6EFA50AB
:1013F80012001100850E0301426F000E436F000EAC
:10140800416F000E406F000E0B6E000E0C6E000E4A
:101418000D6E49EC8BF003014C51FC0B01094C6F2C
:10142800B19CA18C12000301939F000E946F6B0E68
:10143800956F020E9B6F020E9C6F000E966F000E4A
:101448009A6F280E996F000E986F000E976FA396EB
:10145800A00E936F1200000E0001926F050E936F9D
:10146800130E996F000E966FC786A380000E0B6E41
:10147800000E0C6E000E0D6E26EC8BF0800E000137
:10148800916F1200522A030E5218D8A44EEF8AF018
:1014980050EF8AF05CEF8AF0BF82BF92BF82BF92A2
:1014A800000E526E000E03011D6F000E1C6F428F5E
:1014B800110054685568010E0001E86FFC8DFC8F1F
:1014C8000301878F428FB198000E1D6F000E1C6FAD
:1014D8001E81010E0501996FBE8812000B500D0286
:1014E8006100CCF30FF56100D0F310F50B500E023C
:1014F800F35010260C500D02F35010260FC50BF5B3
:1015080010C50CF512005C0E03011B6F260E196F37
:10151800000E186FB19EA18E000E0B6E000E0C6EA1
:10152800000E0D6E18EC8BF0800E03011A6F12007E
:101538007A0E0501846F050E856F000E706F000E20
:10154800716F78C572F579C573F5840E746F050EE1
:10155800756FACEC87F01200000E0001606F000E92
:10156800616F000E626F000E636F000E646F000EF5
:10157800656F000E666F000E676F000E686F1200D1
:101588000301879F429F1E91010E0001E86FFC9D99
:10159800FC9BFC9F000E0501996FBE981200000E7F
:1015A8000001856F020E866F0F0E8C6F000E896F1B
:1015B800C898830E846F12000B6EBBA2E6EF8AF008
:1015C800E8EF8AF0E1EF8AF061002CF4EFF2120004
:1015D800600E0001AD6F000EAF6F000EB36F080E06
:1015E800B16F000EB06F1200040117ABFEEF8AF066
:1015F80000EF8BF002EF8BF050EC8BF011000BC575
:10160800C4F50CC5C5F50DC5C6F512000BC5C7F563
:101618000CC5C8F50DC5C9F512000BC5C1F50CC53B
:10162800C2F50DC5C3F512000BC5BBF50CC5BCF55D
:101638000DC5BDF51200550E0001B46FAA0EB46FAA
:10164800B48112000BC5D6F50CC5D7F50DC5D8F574
:1016580012000BC5CDF50CC5CEF50DC5CFF51200A2
:101668000BC5D0F50CC5D1F50DC5D2F512000BC5CB
:10167800CAF50CC5CBF50DC5CCF512000BC5D3F5D5
:101688000CC5D4F50DC5D5F512000BC5BEF50CC5B6
:10169800BFF50DC5C0F512000401179B010E050129
:1016A8009A6F12000C6E0C50E0EC8AF01200FFFFEB
:0616B800120012001200F6
:0216C000110017
:020000040020DA
:10000000FF0FFF0FFF0FFF0FFF0FFF0FFF0FFF0F80
:10001000FF0FFF0FFF0FFF0FFF0FFF0FFF0FFF0F70
:020000040030CA
:100000008CEEFFFF9FFFFFFFFFFFFFFFFFFFFFFFE4
:10001000FFFFFFFFFFFFFFFFFFFFFFFFFFFFFFFFF0
:04002000FFFFFFFFE0
:00000001FF
