:020000040000FA
:0400000085EF00F098
:10000800F244F244F244F244F244F244F244E84442
:10001800F244F244F244F244F244F244F244F24428
:10002800F244F244F244F244F244F244F244F24418
:10003800F244F244F244F244F244F24416420843D1
:10004800F244F244F244F244F244F24497446743DF
:10005800A144F244F244F244F244F244F244F24439
:10006800F244F244F244F244F244F244F244F244D8
:10007800F244F244F244F2444200F244F244F244BC
:10008800F244F244F244F244F244F244F244F244B8
:10009800F244F244F244F2444200F244F244F2449C
:1000A800F244F244F244F244F244F244F244F24498
:1000B800F244F244F244F244F244F244F244F24488
:1000C800F244F244F244F244F244F244F244F24478
:1000D800F244F244F244F244F244F244F244F24468
:1000E8004200F244F244F244F244F244F244F2444C
:1000F800F244F244F244F244F244F244F244F24448
:06010800FF0043EF86F04A
:10F888000082000500018300020000000000000063
:10F89800000000000000000000000100000100005E
:10F8A8000100000100000100000200000200000247
:10F8B8000000020000020000030000030000030033
:10F8C800000300000300000400000400000400001E
:10F8D8000400000400000500000500000500000504
:10F8E80000000500000600000600000600000600F3
:10F8F80000060000070000070000070000070000DE
:10F9080007000008000008000008000008000008C0
:10F9180000000900000900000900000900000900B2
:10F92800000A00000A00000A00000A00000A00009D
:10F938000B00000B00000B00000B00000B00000C7C
:10F9480000000C00000C00000C00000C00000D0072
:10F95800000D00000D00000D00000D00000E00005D
:10F968000E00000E00000E00000E00000F00000F39
:10F9780000000F00000F00000F0000100000100032
:10F98800001000001000001000001100001100001D
:10F9980011000011000011000012000012000012F6
:10F9A80000001200001200001300001300001300F2
:10F9B80000130000130000140000140000140000DD
:10F9C80014000014000014010014010014010014B4
:10F9D80001001401001402001402001402001402B1
:10F9E800001402001403001403001403001403009D
:10F9F8001403001404001404001404001404001474
:10FA0800040014050014050014050014050014056D
:10FA1800001406001406001406001406001406005C
:10FA28001407001407001407001407001407001433
:10FA38000800140800140800140800140800140929
:10FA480000140900140900140900140900140A001C
:10FA5800140A00140A00140A00140A00140B0014F3
:10FA68000B00140B00140B00140B00140C00140CE6
:10FA780000140C00140C00140C00140D00140D00DC
:10FA8800140D00140D00140D00140E00140E0014B3
:10FA98000E00140E00140E00140F00140F00140FA3
:10FAA80000140F00140F001410001410001410009C
:10FAB8001410001410001411001411001411001473
:10FAC8001100141100141200141200141200141260
:10FAD800001412001413001413001413001413005C
:10FAE8001413001414001414001414001414001433
:10FAF800140014140114140114140114140114141E
:10FB0800011414021414021414021414021414021A
:10FB180014140314140314140314140314140314F2
:10FB280014041414041414041414041414041414DD
:10FB380005141405141405141405141405141406D6
:10FB480014140614140614140614140614140714B2
:10FB5800140714140714140714140714140814149D
:10FB68000814140814140814140814140914140993
:10FB780014140914140914140914140A14140A1472
:10FB8800140A14140A14140A14140B14140B14145D
:10FB98000B14140B14140B14140C14140C14140C50
:10FBA80014140C14140C14140D14140D14140D1432
:10FBB800140D14140D14140E14140E14140E14141D
:10FBC8000E14140E14140F14140F14140F14140F0D
:10FBD80014140F14141014141014141014141014F2
:10FBE80014101414111414111414111414111414DD
:10FBF80011141412141412141412141412141412CA
:10FC080014141314141314141314141314141314B1
:10FC1800141414141414141414141414141413149D
:10FC28001413141413141413141413141412141492
:10FC3800121414121414121414121414111414118A
:10FC4800141411141411141411141410141410147D
:10FC5800141014141014141014140F14140F141472
:10FC68000F14140F14140F14140E14140E14140E6D
:10FC780014140E14140E14140D14140D14140D145D
:10FC8800140D14140D14140C14140C14140C141452
:10FC98000C14140C14140B14140B14140B14140B50
:10FCA80014140B14140A14140A14140A14140A143D
:10FCB800140A141409141409141409141409141432
:10FCC8000914140814140814140814140814140833
:10FCD800141407141407141407141407141407141D
:10FCE8001406141406141406141406141406141412
:10FCF8000514140514140514140514140514140417
:10FD080014140414140414140414140414140314FC
:10FD180014031414031414031414031414021414F1
:10FD280002141402141402141402141401141401F9
:10FD380014140114140114140114140014140014DC
:10FD480014001414001414001414001314001314D1
:10FD580000131400131400131400121400121400DA
:10FD680012140012140012140011140011140011BE
:10FD780014001114001114001014001014001014B1
:10FD8800001014001014000F14000F14000F1400BA
:10FD98000F14000F14000E14000E14000E14000EA1
:10FDA80014000E14000D14000D14000D14000D1491
:10FDB800000D14000C14000C14000C14000C14009A
:10FDC8000C14000B14000B14000B14000B14000B84
:10FDD80014000A14000A14000A14000A14000A1471
:10FDE800000914000914000914000914000914007A
:10FDF8000814000814000814000814000814000768
:10FE08001400071400071400071400071400061450
:10FE18000006140006140006140006140005140059
:10FE2800051400051400051400051400041400044A
:10FE38001400041400041400041400031400031430
:10FE48000003140003140003140002140002140039
:10FE5800021400021400021400011400011400012D
:10FE68001400011400011400001400001400001410
:10FE78000000140000140000130000130000130019
:10FE8800001300001300001200001200001200000E
:10FE980012000012000011000011000011000011F2
:10FEA80000001100001000001000001000001000F9
:10FEB800001000000F00000F00000F00000F0000EE
:10FEC8000F00000E00000E00000E00000E00000ED5
:10FED80000000D00000D00000D00000D00000D00D9
:10FEE800000C00000C00000C00000C00000C0000CE
:10FEF8000B00000B00000B00000B00000B00000AB9
:10FF080000000A00000A00000A00000A00000900B8
:10FF180000090000090000090000090000080000AD
:10FF2800080000080000080000080000070000079B
:10FF38000000070000070000070000060000060098
:10FF4800000600000600000600000500000500008D
:10FF5800050000050000050000040000040000047E
:10FF68000000040000040000030000030000030078
:10FF7800000300000300000200000200000200006D
:10FF88000200000200000100000100000100000161
:10FF9800000001546F74616C2073657175656E6340
:10FFA8006573203D2025640D0A0A000D0A52657309
:10FFB80065742054696D65203D2025642075732083
:10FFC8000025643A0925640925640925640D0A0099
:10FFD80053657175656E6365202325640D0A006F8E
:10FFE8007220677265617465720D0A0A0009470913
:07FFF8005209420D0A00004E
:020000040001F9
:100000002AC542F52BC543F52CC544F52DC545F54C
:100010002EC546F52FC547F530C548F531C549F51C
:1000200049AE02D0010E01D0000E406E416A405030
:100030004110D8B410D0491E481E471E461E451E0A
:10004000441E431E426C000E432244224522462297
:100050004722482249224FAE50924FBE05D04F5002
:1000600008E14E04D8B005D0000E3D6E010E3C6E86
:1000700004D04EC53CF54FC53DF54CC53EF54DC5CC
:100080003FF540504110D8A402D050A403D03E0602
:10009000D8A03F06000E4B6E1F0E4A6E000EBA6FC0
:1000A0007CD04A06D8A04B069B0E4A24D96E050E7A
:1000B0004B20DA6E42C50BF543C50CF544C50DF572
:1000C00045C50EF546C50FF547C510F548C511F5F0
:1000D00049C512F50A0E136E000E146E000E156E51
:1000E000000E166E000E176E000E186E000E196EC2
:1000F000000E1A6E99EC83F00BC532F50CC533F582
:100100000DC534F50EC535F50FC536F510C537F5F7
:1001100011C538F512C539F532C51DF534C51EF5C2
:1001200009EC88F01D50300FDF6E3C06D8A03D066C
:100130003E06D8A03F0642C50BF543C50CF544C5A5
:100140000DF545C50EF546C50FF547C510F548C573
:1001500011F549C512F50A0E136E000E146E000E4D
:10016000156E000E166E000E176E000E186E000E45
:10017000196E000E1A6EF5EC82F00BC542F50CC537
:1001800043F50DC544F50EC545F50FC546F510C53B
:1001900047F511C548F512C549F54BBE1FD04B5068
:1001A00003E14A04D8A01AD042504310441045102D
:1001B0004610471048104910D8A473D73DBE05D04B
:1001C0003D5002E13C04D8B06CD73FBE07D03F5051
:1001D00003E13E04D8A002D050B263D74050411092
:1001E000D8A402D050A418D04A06D8A04B0640503C
:1001F0004110D8A404D0000E3B6E2B0E03D0000E8D
:100200003B6E2D0E3A6E9B0E4A24D96E050E4B2086
:10021000DA6E6100E8F4DFF428C51DF529C51EF586
:100220009B0E4A241F6E050E4B20206E3EC521F505
:100230003FC522F51DEC85F01DC528F51EC529F525
:100240001200000E8F6F000E8E6F9B0E786FFF0EE8
:10025000796F010E54247A6F000E55207B6F1BECD2
:1002600089F0000E916F000E906FD1D0D80E786F8C
:10027000FF0E796F010E90257A6F000E91217B6F32
:100280001BEC89F0F50E786FFF0E796F1BEC89F08F
:10029000000E8D6F000E8C6F4FD0C90E786FFF0E61
:1002A000796F010E8C257A6F000E8D217B6F8EC5C4
:1002B0000BF58FC50CF5000E0E6E030E0D6EC9EC1E
:1002C00088F02F0E0B24D96E1B0E0C20DA6EDF5037
:1002D000866F86517C6F7D6B8EC50BF58FC50CF5D7
:1002E000000E0E6E030E0D6EC9EC88F0300E0B245E
:1002F000D96E1B0E0C20DA6EDF50876F87517E6F30
:100300007F6B8EC50BF58FC50CF5000E0E6E030EC0
:100310000D6EC9EC88F0310E0B24D96E1B0E0C202B
:10032000DA6EDF50886F8851806F816B1BEC89F02B
:100330008C4B8D2B8E4B8F2BDB0E866F050E876FB4
:10034000D8909035D96E9135DA6ED890D936DA36A4
:100350008651D9268751DA22DE508C5DDE508D59C8
:10036000D8B006D0560E8E5D050E8F59D8A095D701
:10037000B30E786FFF0E796FDB0E866F050E876FF9
:10038000020E8627000E8723D8909035D96E9135BE
:10039000DA6ED890D936DA368651D9268751DA22E4
:1003A000610078F388F5610074F389F5D89089319C
:1003B0008A6F88317A6F8AC57BF51BEC89F0DB0E7A
:1003C000866F050E876F020E8627000E8723D89052
:1003D0009035D96E9135DA6ED890D936DA368651A5
:1003E000D9268751DA22DE280AE1DE28D8A407D0F0
:1003F000E70E786FFF0E796F1BEC89F006D0AF0E19
:10040000786FFF0E796F1BEC89F0904B912B905118
:10041000545C91515558D8A0120028D7610088F536
:10042000D9F461008CF5DAF4DEC4F6F4DDC4F7F437
:10043000000EF86E0800F550250AD8A4B6D0610069
:1004400088F5D9F461008CF5DAF4DE2A000EDD229D
:10045000000E4D6E000E4C6E4CC550F54DC551F55D
:100460004E684F68610088F5D9F461008CF5DAF4C4
:10047000DEC4F6F4DDC4F7F4000EF86E0800F550A3
:10048000640AD8B411D0610088F5D9F461008CF504
:10049000DAF4DEC4F6F4DDC4F7F4000EF86E0800FA
:1004A000F550690AD8A449D0610088F5D9F46100F3
:1004B0008CF5DAF4DE2A000EDD22610090F5D9F425
:1004C000610094F5DAF461007CF366F5020EDE2635
:1004D00061007CF367F5000EDD22610098F5D9F428
:1004E00061009CF5DAF4610078F368F5610074F35B
:1004F00069F5000E69BFFF0E6A6F6B6F6C6F6D6FF1
:100500006E6F6F6F60C528F561C529F568C52AF55E
:1005100069C52BF56AC52CF56BC52DF56CC52EF597
:100520006DC52FF56EC530F56FC531F500EC80F067
:1005300028C560F529C561F51200610088F5D9F478
:1005400061008CF5DAF4DEC4F6F4DDC4F7F4000ED5
:10055000F86E0800F550250AD8A419D0610088F576
:10056000D9F461008CF5DAF4DE2A000EDD22000EEB
:100570000E6E250E0D6E60C50FF561C510F5A5EC6C
:1005800085F0000E0501616F010E606F12006100C1
:1005900088F5D9F461008CF5DAF4DE2A000EDD224C
:1005A000000E616F000E606F1200610088F5D9F4D3
:1005B00061008CF5DAF4DEC4F6F4DDC4F7F4000E65
:1005C000F86E0800F5500D6E0E6A60C50FF561C536
:1005D00010F5A5EC85F0610088F5D9F461008CF583
:1005E000DAF4DE2A000EDD22CCD7000E1C6E1AAE25
:1005F00012D01A1E191E181E171E161E151E141EA6
:10060000136C000E1422152216221722182219220A
:100610001A22010E1C6E12AE12D0121E111E101ED6
:100620000F1E0E1E0D1E0C1E0B6C000E0C220D223A
:100630000E220F22102211221222010E1C1A21EE6C
:100640001DF1070EDE6AE806FDE2135014101510C6
:1006500016101710181019101A10D8B446D0010E21
:100660001B6E0AD0D8901336143615361636173648
:10067000183619361A361B2A1AAEF4D7D8901D36FA
:100680001E361F36203621362236233624361350A6
:100690000B5C14500C5815500D5816500E5817502E
:1006A0000F5818501058195011581A501258D8A0F5
:1006B00011D013500B5E14500C5A15500D5A165091
:1006C0000E5A17500F5A1850105A1950115A1A50E2
:1006D000125A1D80D8901A32193218321732163237
:1006E0001532143213321B2EC9D71C50D8B410D077
:1006F000241E231E221E211E201E1F1E1E1E1D6CB8
:10070000000E1E221F222022212222222322242206
:100710001DC50BF51EC50CF51FC50DF520C50EF545
:1007200021C50FF522C510F523C511F524C512F515
:100730001200000E1C6E12AE12D0121E111E101EE0
:100740000F1E0E1E0D1E0C1E0B6C000E0C220D2219
:100750000E220F22102211221222010E1C6E1AAE3E
:1007600010D01A1E191E181E171E161E151E141E36
:10077000136C000E14221522162217221822192299
:100780001A221350141015101610171018101910E3
:100790001A10D8B43CD0010E1B6E0AD0D890133674
:1007A0001436153616361736183619361A361B2AE9
:1007B0001AAEF4D713500B5C14500C5815500D584A
:1007C00016500E5817500F581850105819501158ED
:1007D0001A501258D8A010D013500B5E14500C5A57
:1007E00015500D5A16500E5A17500F5A1850105ACD
:1007F0001950115A1A50125AD8901A321932183206
:10080000173216321532143213321B2ED3D71C5026
:10081000D8B410D0121E111E101E0F1E0E1E0D1E5B
:100820000C1E0B6C000E0C220D220E220F22102229
:10083000112212220BC50BF50CC50CF50DC50DF5DB
:100840000EC50EF50FC50FF510C510F511C511F544
:0608500012C512F51200B2
:10085800B19C0301429F000E1D6F000E1C6FBF82EA
:10086800BF92B1A804D0B1980368046806D06000AC
:1008780000FD03F5600004FD04F5045004E1640E76
:10088800035CD8A04ED0550E545C050E5558D8B010
:100898001AD0DB0E016E050E026E020E0126000E46
:1008A8000222D8905434D96E5534DA6ED890D9369D
:1008B800DA360150D9260250DA2261000CF4DEF44F
:1008C800610010F4DDF4544A552ADB0E016E050E62
:1008D800026ED8905434D96E5534DA6ED890D93621
:1008E800DA360150D9260250DA22000EDE6E000EEA
:1008F800DD6EDB0E016E050E026E020E0126000E85
:100908000222D8905434D96E5534DA6ED890D9363C
:10091800DA360150D9260250DA22000EDE6E000EB9
:10092800DD6E550E545C050E5558D8B01100DB0E1F
:10093800016E050E026ED8905434D96E5534DA6EB5
:10094800D890D936DA360150D9260250DA22DE2A72
:10095800000EDD221100000EC26E000EC16E000EE8
:10096800BE6E000EBF6E000EC06E070ECA6EEF0E92
:10097800C66EF40EC76E260EC86EFC0EC96ED80E73
:100988000401186F080E106FC40E086F070E206F51
:10099800EA0E006F000E196F000E216F000E096F2E
:1009A800080E016F000E116F000E226F000E026F0D
:1009B800000E0A6F000E126F000E1A6F03690B69A2
:1009C800FE0E136F1B69070E236F04690C69146907
:1009D8001C690F0E246F179B168B159B000E0B6E50
:1009E800000E0C6E000E0D6EBBEC89F09E8E0C0E88
:1009F80002014C6F3A0E116F0D0E6E6F2C0E146FB4
:100A0800310E156F0C0E4F6F0B0E6D6F140E6A6F53
:100A1800000E616F3B0E096F030E196F030E1A6FFC
:100A28000C0E636F320E176F020E186F110E6B6F7C
:100A3800120050A00AD01FC516F520C517F51DC510
:100A480018F51EC519F5D3EC87F022BE05D021C5CF
:100A580026F522C527F504D0000E276E000E266E57
:100A6800000E256E000E246E0CD0000E0E6E200EA9
:100A78000D6E1DC50FF51EC510F5A5EC85F0244AB1
:100A8800252A2650245C2550800A236E2750800A88
:100A98002358D8A0EAD750B00AD01FC516F520C5EC
:100AA80017F51DC518F51EC519F5D3EC87F01FC538
:100AB8000BF520C50CF59DEC88F026500B241D6E17
:100AC80027500C201E6E1200000E606E020E616E22
:100AD800000E626E270E636E000E646E000E656E69
:100AE800000E666E000E676E000E686E000E6A6E6F
:100AF800180E6B6E000E6C6E140E6D6E000E6E6E20
:100B0800B29CB29E67906792A29EA29CC40E0B6E86
:100B1800130E0C6E010E0D6EADEC89F0C20E0B6E4D
:100B2800130E0C6E010E0D6EA6EC89F0C60E0B6E40
:100B3800130E0C6E010E0D6EB4EC89F0800E696E0A
:100B480012000F501010D8B404D00F501010D8A4B1
:100B580004D00D50D6EC89F0120020EE04F00F50AE
:100B6800D9261050DA22DE50DE10D8B416D020EE86
:100B780004F00F50D9261050DA2210EE02F00F5070
:100B8800E1261050E222DE50E65CE650800A156E3F
:100B9800DE50800A1558D8B0120020EE02F00F502F
:100BA800D9261050DA22DE2A000EDD221200000EAD
:100BB8000201F16F000EF36F000EF56FA00EF76FD4
:100BC800800EF86F000EF96F8A0EFA6F000EFB6F39
:100BD800000EFC6F000EFD6F000EFE6F000EFF6F23
:100BE800000E0B6E000E0C6E000E0D6E8AEC89F076
:100BF800000E0B6E000E0C6E000E0D6E83EC89F06D
:100C0800000E0B6E000E0C6E000E0D6E91EC89F04E
:060C1800000E536E1200F5
:100C2000B19E930E086EF80E096E000E0A6E020E4B
:100C30000001E86FFC8D6000DCF305F56000E0F377
:100C400006F5076A0550F9270650FA230750FB23DB
:100C5000080E0824056E070E0920066E000E0A20F5
:100C6000076E0550F95D0650FA590750FB59D8A098
:100C70001100610020F4F9F0610024F4FAF0610041
:100C800028F4FBF01100C00EF66E130EF76E010E85
:100C9000F86E09006100D4F354F509006100D4F343
:100CA00055F501EEDBF119EE53F3EE6AE550E15034
:100CB000FCE1E250FAE101EE94F1270EEE6AE8065B
:100CC000FDE101EE4CF1080EEE6AE806FDE10401DB
:100CD000080E5D6F000E5E6F000E5F6F000171EF1A
:100CE00086F0FCEC86F0D68E54EC89F005019A5122
:100CF000D8B418D09951D8A413D0B4EC88F0A30E6E
:100D00000501936F570E926F020EE82EFED7922FB9
:100D1000FCD7932FFAD700F054EC89F021EC81F046
:100D2000000E9A6F290E0501936F960E926F7F0E3B
:100D3000E82EFED7922FFCD7932FFAD7D7D772C5BC
:100D400076F573C577F5000E986F000E976F13D088
:100D500070C560F571C561F5760E626F050E636F43
:100D600074C564F575C565F50EEC82F0050160513A
:100D70009727615198236100D8F5F6F46100DCF5FE
:100D8000F7F4000EF86E0800F5500009D8A4E0D77B
:0A0D900097C570F598C571F51200C3
:100D9C00B29E68B067A013D067900501D051D111F5
:100DAC00D211D8B4110001D811000500FA6ED0513F
:100DBC00FD6ED151FE6ED251FF6EFA50120068A238
:100DCC00110067A2110067920501CD51CE11CF1110
:100DDC00D8B4110001D811000500FA6ECD51FD6E8A
:100DEC00CE51FE6ECF51FF6EFA50120094EC87F08C
:100DFC0007EC89F06DEC88F022EC88F0AFEC84F015
:100E0C0070EC89F070EC87F085EC88F025EC87F0BD
:100E1C0054EC88F0F3EC88F0EFEC87F04BEC87F0B7
:100E2C003BEC88F0B6EC87F0DBEC85F063EC89F0FA
:100E3C00DEEC88F068EC85F0C9EC89F01200000E4D
:100E4C000001E86F400EF96F030EFA6F000EFB6F96
:100E5C002B0EF16F2E0EF06F420EFD6F000EF86F21
:100E6C00020EF76F000EEF6FF00EEE6F1E0EFF6F9F
:100E7C00000EFE6FB09AB098B09EB09CA09AA0984D
:100E8C00A09EA09CC00EFC6F1200020EE86F930E89
:100E9C00F96FF80EFA6F000EFB6F000EF16F810EFA
:100EAC00F06F0B0EFD6F000EF86F0F0EF76F000E4C
:100EBC00EF6F010EEE6F190EFF6F000EFE6FB89AFA
:100ECC00B898B89EB89CA89AA898A89EA89CC00E42
:100EDC00FC6F1200010EE86F8D0EF96F000EFA6FA9
:100EEC00000EFB6F1B0EF16F2F0EF06F600EFD6F7F
:100EFC00000EF86F010EF76F0F0EEF6FEE69280EF4
:100F0C00FF6F000EFE6FB49AB498B49EB49CA49A72
:100F1C00A498A49EA49CC00EFC6F1200D68A000E4E
:100F2C00D6BE010E0B6ED69E550E0401596FAA0E3D
:100F3C00596F5991000E5F6F000E5E6F080E5D6F5A
:100F4C00550E596FAA0E596F59810BB002D0D69E0F
:100F5C0001D0D68E03016781658D628F658F12007B
:100F6C00000E03011F6F000E206F010E216F000E8B
:100F7C001D6F000E1C6FB1981C51600074FC0BF5BA
:100F8C000C6A0BC50CF50B6A0B100501D96F0C50D4
:100F9C00DA6F330E03011E6F1200000E1C6E000E72
:100FAC001B6E0BD01AC50DF50E6A18C50FF519C5B9
:100FBC0010F5A5EC85F01B4A1C2A1B501624D96E83
:100FCC001C501720DA6EDF501A6E1A50D8B412006B
:100FDC00E9D7000E0001D56F020ED76F220ED86F25
:100FEC00000ED96F000EDA6F000EDB6F020EDC6F95
:100FFC00000EDD6F000EDE6F000EDF6F000ED46F83
:10100C00800ED66F12001EBE05D01E5010E11D04BE
:10101C00D8B00DD01DC51FF51EC520F51F1E201EF6
:10102C001F4A202A1FC51DF520C51EF512001DC51F
:10103C001DF51EC51EF51200879F000E886F6B0EE6
:10104C00896F020E8F6F010E906F000E8A6F000E6B
:10105C008E6F1E0E8D6F000E8C6F000E8B6F000E40
:10106C00BB6F9E98800E876F1200020ED56F010E1B
:10107C00D76F220ED86F410ED96F400EDA6F000E6B
:10108C00DB6F050EDC6F100EDD6F080EDE6F200EB1
:10109C00DF6F000ED46F800ED66F1200010ED56F6D
:1010AC00000ED76F190ED86F020ED96F000EDA6FC3
:1010BC00000EDB6F020EDC6F080EDD6F000EDE6FB4
:1010CC00000EDF6F000ED46F840ED66F120003017A
:1010DC00939F000E946F6B0E956F020E9B6F020E1A
:1010EC009C6F000E966F000E9A6F280E996F000E73
:1010FC00986F000E976FA396A00E936F1200850E3B
:10110C000301426F000E436F000E416F000E406FE3
:10111C00000E0B6E000E0C6E000E0D6EC2EC89F004
:10112C004C51FC0B01094C6FB19CA18C12000BC5EE
:10113C000DF50CC50EF502D00B4A0C2A61002CF4EF
:10114C00D9F4610030F4DAF4DF50D8A4F5D70D509F
:10115C000B5C0B6E0E500C580C6E120054685568DC
:10116C00010E0001E86FFC8DFC8F0301878F428F0D
:10117C00B198000E1D6F000E1C6F1E81010E050133
:10118C00996FBE8812000B500D026100CCF30FF565
:10119C006100D0F310F50B500E02F35010260C50DA
:1011AC000D02F35010260FC50BF510C50CF51200EF
:1011BC00000E926F050E936F130E996F000E966FC3
:1011CC00C786A380000E0B6E000E0C6E000E0D6E0B
:1011DC009FEC89F0800E916F12005C0E03011B6F67
:1011EC00260E196F000E186FB19EA18E000E0B6E9D
:1011FC00000E0C6E000E0D6E98EC89F0800E1A6FBE
:10120C001200000E0001606F000E616F000E626F25
:10121C00000E636F000E646F000E656F000E666F3C
:10122C00000E676F000E686F12007A0E846F050E49
:10123C00856F000E706F000E716F78C572F579C5F1
:10124C0073F5840E746F050E756F9FEC86F01200AB
:10125C00B29C0501CA51CB11CC11D8B4110001D8E4
:10126C0011000500FA6ECA51FD6ECB51FE6ECC51C9
:06127C00FF6EFA501200A3
:10128400522A030E5218D8A41100BF82BF92BF8203
:10129400BF92000E526E000E03011D6F000E1C6FF4
:1012A400428F11000301879F429F1E91010E00018E
:1012B400E86FFC9DFC9BFC9F000E0501996FBE9896
:1012C4001200000E0001856F020E866F0F0E8C6FE8
:1012D400000E896FC898830E846F1200600E00019F
:1012E400AD6F000EAF6F000EB36F080EB16F000E3E
:1012F400B06F12000B6EBBA2FED761002CF4EFF2AC
:1013040012000BC5C4F50CC5C5F50DC5C6F5120014
:101314000BC5C7F50CC5C8F50DC5C9F512000BC53D
:10132400C1F50CC5C2F50DC5C3F512000BC5BBF55F
:101334000CC5BCF50DC5BDF512000BC5D6F50CC525
:10134400D7F50DC5D8F512000BC5CDF50CC5CEF5F6
:101354000DC5CFF512000BC5D0F50CC5D1F50DC5E3
:10136400D2F512000BC5CAF50CC5CBF50DC5CCF5ED
:1013740012000BC5D3F50CC5D4F50DC5D5F5120077
:101384000BC5BEF50CC5BFF50DC5C0F51200550E55
:0A139400B46FAA0EB46FB48112000A
:1013A000040117AB1100DBEC89F011000C6E0C503E
:1013B0007CEC89F01200179B010E05019A6F120058
:0A13C000FFFF1200120012001100DE
:020000040020DA
:10000000FF0FFF0FFF0FFF0FFF0FFF0FFF0FFF0F80
:10001000FF0FFF0FFF0FFF0FFF0FFF0FFF0FFF0F70
:020000040030CA
:100000008CEEFFFF9FFFFFFFFFFFFFFFFFFFFFFFE4
:10001000FFFFFFFFFFFFFFFFFFFFFFFFFFFFFFFFF0
:04002000FFFFFFFFE0
:00000001FF
